:100000000C9456020C947E020C947E020C947E0298
:100010000C947E020C947E020C947E020C947E0260
:100020000C947E020C947E020C947E020C94BA0313
:100030000C947E020C947E020C947E020C947E0240
:100040000C9469100C947E020C947E020C947E0237
:100050000C947E020C947E020C947E020C947E0220
:100060000C947E020C947E020101FF030101F70350
:100070006C0068000500893008023802497868146D
:100080000000536E616B65000500680138010000D7
:10009000536E616B65000A0A153A49676E6F7265A7
:1000A000006D560A0A504C45415345205455524E56
:1000B000204F464620004C4F572042415454455251
:1000C0005921200003053F213F1208120A100A0E91
:1000D0001C0E0C1E0C141A14161F161E131E1E1BAB
:1000E0001E1E1F1E3F213F3A2F3A173D173F213F4B
:1000F000181F02040A041F0E04040E1F0A1F0A0E12
:100100000E1F04110E2E252E2F2A2E262929021FFE
:1001100002081F08150E04040E150E15151B151BDD
:10012000040604040C040000000017000300031F71
:100130000A1F16371A1904130A153A000300000E95
:1001400011110E000A040A040E0400300004040415
:100150000010001804031F111F121F101D15171186
:10016000151F07041F17151D1F151D01011F1F1542
:100170001F17151F000A00003200040A110A0A0A9C
:10018000110A040115020E11171E051E1F150A0E75
:10019000110A1F110E1F15111F05010E111D1F043D
:1001A0001F111F1108100F1F041B1F10101F061F07
:1001B0001E040F0E110E1F09060E112E1F051A1216
:1001C0001509011F011F101F0F180F1F0C1F1B0403
:1001D0001B031C03191513001F11030418111F0022
:1001E0000201022020200001020C121E1F120C0C22
:1001F00012120C121F0C1A14041E05242A1E1F02B0
:100200001C141D1020201D1F0814111F101E041E79
:100210001E021C0C120C3E0A040C123E1E04021498
:10022000160A020F120E101E0E100E1E081E120CC1
:100230001226281E322A26041E21001F00211E0419
:100240000102013F213FF6E8DBCFC3B8AEA49B9289
:100250008A827B746E68625C57524E4945413E3AD1
:100260003734312E2C292725232145006801000031
:10027000172B152010204C4F4144455200172B16C8
:10028000201314000A4E6F205344206361726420CF
:100290006F720A6E6F204C4F414445522E484558AC
:1002A0000A0A153A45786974001D20466C61736826
:1002B000696E670A20206C6F616465722E2E2E0AAB
:1002C0000A444F4E2754205455524E204F46462143
:1002D0000000000000230026002900040404040498
:1002E00004040402020202020203030303030301E3
:1002F00002040810204080010204081020010204BA
:10030000081020000000080002010000030407009C
:100310000000000000000000000000240027002A68
:100320000000000000250028002B000500380168AF
:10033000010000401E0000000000800000000000DE
:100340000000C000000000000000A000000000004D
:100350000000A000000000000000C000000000003D
:100360000000F800000000000001F40000000000A0
:1003700000019C000000001C3DE303000000086336
:100380004217070000000FE1C309FE00000008103B
:10039000A18FFF8000000C08A18F7FC000000A1809
:1003A000F18BF2E000000BF8E189C18000000960E8
:1003B000A188E0000000086081886000000007A1BB
:1003C0008189D80000000013428934000000000435
:1003D0003C8ABE0000000000008ABF000000000050
:1003E0000087010000000000008001000000000004
:1003F000008081000000000000404200000000007A
:100400000030BC0000000000001F060000000000DB
:100410000000070000000000000003800000000052
:100420000000000000175344001613780016131440
:10043000001510200015201000540A03E181867F6A
:100440003E186D830F0F0E0183866033186DC3193C
:100450008F1803C38E6033186DE330CF1803C39E2B
:10046000603630CDE360CF3006C79E7E3E30CDB3E0
:1004700060CF300CC6F6603330D9B660CF33CFCC06
:10048000F66061B0DB1E60CF30D86CE6C061B0DBD7
:100490001E618F19986CC6C063B19B0E330F0FB0ED
:1004A00078C6FF7E1F1B061E0F00B31011241FBE4F
:1004B000CFEFD8E0DEBFCDBF11E0A0E0B1E0E6E7CE
:1004C000F6E302C005900D92AA33B107D9F725E0F3
:1004D000AAE3B1E001C01D92A73EB207E1F712E026
:1004E000C6E5D2E004C02197FE010E94581AC53526
:1004F000D107C9F70E94BE100C94391B0C94000060
:10050000CF92DF92EF92FF920F931F93CF93DF93DF
:100510006C017A018B01C0E0D0E0CE15DF0581F0DF
:10052000D8016D918D01D601ED91FC910190F08182
:10053000E02DC6010995892B11F02196EECF7E01A1
:10054000C701DF91CF911F910F91FF90EF90DF9046
:10055000CF900895089580E090E0089510924D03A3
:1005600010924C0385E190E090933D0180933C0113
:100570008CE090E090933B0180933A010E94AE178B
:100580002AE230E040E050E00E944B1970934501B0
:10059000609344010E94AE1728E130E040E050E053
:1005A0000E944B1970934301609342018AE090E0EE
:1005B000909347038093460330913C0190913A0118
:1005C000E6E4F1E080E0232F280F2083918381501F
:1005D0003296863FC1F781E090E090934903809383
:1005E000480310924B0310924A031092410110925B
:1005F0006F0580E090E00E943519809340010895D6
:10060000CF93DF93EC0188819981009711F00E94CC
:10061000DA16198218821D821C821B821A82DF91CF
:10062000CF9108950E94241B0F931F93CF93DF93C4
:10063000EC0188819981009729F02A813B81261756
:10064000370788F48B016F5F7F4F0E945E1A009717
:1006500061F0998388831B830A832C813D81232B3E
:1006600011F4FC01108281E001C080E0DF91CF91A4
:100670001F910F910895CF92DF92EF92FF920F9307
:100680001F93CF93DF9300D000D0CDB7DEB78C019E
:10069000862F4AE09E012F5F3F4F7901B90190E01C
:1006A0000E940518F70101900020E9F73197EE1933
:1006B000FF09E1F0D8011496CD90DC901597CE0E8D
:1006C000DF1EB601C8010E941403882381F0F801DF
:1006D0002081318184819581B701820F931F0E940F
:1006E000321BD8011596DC92CE92149781E00F90C0
:1006F0000F900F900F90DF91CF911F910F91FF906E
:10070000EF90DF90CF900895EF92FF920F931F9399
:10071000CF93DF93EC017B018A01BA010E9414039D
:10072000811104C0CE010E94000307C01D830C8309
:10073000B701888199810E94321BCE01DF91CF9150
:100740001F910F91FF90EF9008956115710579F059
:10075000FB0101900020E9F73197AF01461B570BD1
:10076000DC01ED91FC910280F381E02D099480E0A1
:1007700090E008951F920F920FB60F9211242F93BD
:100780006F937F938F939F9360914F03662359F1EB
:1007900080913E018F5F80933E01909150038917B5
:1007A00010F12091520381E02827209352031092E8
:1007B0003E0180915103882369F08091000193E408
:1007C000899F802D1124895B809300010E94241A47
:1007D00090934E03222329F080914E038093B4001E
:1007E00002C080E0FBCF9F918F917F916F912F91FD
:1007F0000F900FBE0F901F901895FC0161110DC056
:10080000178A158A14A213A2108E10924E0310920A
:100810004F03109252031092B4000895EF92FF928A
:100820000F931F93CF938C017B01C42F411103C001
:1008300060E00E94FD03EC2FF0E0DF01AA0FBB1F78
:10084000A00FB11F1E96FC92EE921D97DF01199624
:10085000AA0FBB1FA00FB11F1D921C92E00FF11F2A
:1008600081E0818389E0868B118E138E158ECF9166
:100870001F910F91FF90EF900895FC01643508F0EF
:1008800053C0403308F050C090A1742F75957595F2
:100890007595262F062E000C330B542F577092306F
:1008A000A1F4F90184E57802E00DF11D1124E95A63
:1008B000FC4F808190E0052E02C0959587950A94A3
:1008C000E2F78095982F91700AC0933041F48485A7
:1008D0008170462740954170841303C014C0911164
:1008E00012C084E57802200D311D1124F901E95A66
:1008F000FC4F81E090E001C0880F5A95EAF780959F
:100900009081892310C084E57802200D311D1124C7
:10091000F901E95AFC4F81E090E001C0880F5A9537
:10092000EAF79081892B80830895CF92DF92EF922E
:10093000FF920F931F93CF93DF937C01D62EC22E8D
:10094000C42F002E000C110B040F111D47FD1A952A
:100950008C2F0C2E000C990B801791076CF4D0E0B3
:10096000DC1544F46D2D6D0F4C2FC7010E943D0422
:10097000DF5FF6CFCF5FECCFDF91CF911F910F916B
:10098000FF90EF90DF90CF9008956F927F928F92BB
:100990009F92AF92BF92CF92DF92EF92FF920F930E
:1009A0001F93CF93DF93EC016A3011F42885A3C025
:1009B0006D3009F4A7C0A98483E58A150CF485C0BD
:1009C000BA848FE28B150CF480C0D8848C8190E0BF
:1009D0000197D89E9001D99E300D1124C9018A0D2E
:1009E000911DA7FC9A95181619060CF06EC02D8162
:1009F0008B2D0B2C000C990BD29E800D911D112478
:100A0000181619060CF061C088A09A2CCA2CE62E84
:100A1000F12CEC2DEA190E2E000CFF0B8C8190E0CE
:100A2000E817F9070CF050C00197E817F90779F0BB
:100A3000E89E9001E99E300DF89E300D1124E20FE2
:100A4000F31F8E8D9F8DE80FF91F149101C010E0E8
:100A50006B2C7B2C272D2B19022E000C330B8D8138
:100A600090E0281739076CF510FF11C081E0D8120B
:100A700006C0472D6C2DCE010E943D041EC00D2DD9
:100A80002D2D462D692DCE010E94950416C089A1F9
:100A900098A1891791F088A381E0D81206C0472D4C
:100AA0006C2DCE010E943D0407C00D2D2D2D462D2D
:100AB000692DCE010E94950488A2169573946D0C41
:100AC000C9CFC3949D0CA5CF88A228853C81898578
:100AD000239F800D112489879F81992399F0082EE7
:100AE000000C990B44E550E0239F40195109112453
:100AF000481759073CF49D818A85299F800D112450
:100B00008A87198681E090E0DF91CF911F910F9144
:100B1000FF90EF90DF90CF90BF90AF909F908F901D
:100B20007F906F9008951F93CF93DF93C82FD62F98
:100B3000462F682F85EA95E00E943D0411E01D0FC5
:100B4000412F6C2F85EA95E00E943D04CF5F4D2F29
:100B50006C2F85EA95E00E943D04412F6C2F85EAB9
:100B600095E0DF91CF911F910C943D044F925F92DD
:100B70006F927F928F929F92AF92BF92CF92DF92AD
:100B8000EF92FF920F931F93CF93DF9300D000D08B
:100B90001F92CDB7DEB74091D7055091D80560912F
:100BA000D9057091DA052FB7F8948091530390918D
:100BB0005403A0915503B09156032FBF481B590B06
:100BC0006A0B7B0B8091D60590E0A0E0B0E000912D
:100BD000D2051091D3052091D4053091D505841705
:100BE0009507A607B70730F4011511052105310552
:100BF00009F039C3012B022B032B09F032C380917A
:100C00006E0581508E3F30F580916D05813011F574
:100C1000809181058F5F6091820587FD09C0082E54
:100C2000000C990B70E06F5F7F4F0E94301A682FA5
:100C3000609381058DE792E09093DC058093DB055E
:100C400088E48093DD0540E06AE672E08CE795E099
:100C50000E940E0480916E0581508E3F70F4809149
:100C60006C05813009F0D1C380E792E09093DC05F8
:100C70008093DB0588E48093DD0580E00E94D70C3B
:100C800080917D05882309F4ADC080919105811183
:100C9000A9C08091890590918A05E0918E05F09117
:100CA0008F05EE0FFF1FE80FF91F259134912115D5
:100CB000310541F520918D05222331F010928F05E9
:100CC00010928E05FC0115C010927D0580917C0567
:100CD000882391F080E00E94D70CE0918E05F0917E
:100CE0008F05EE0FFF1F8091890590918A05E80F0F
:100CF000F91F2591349106C060E08CE795E00E94D1
:100D0000FD0370C0A901569547955695479520FF5C
:100D100049C0C901A6E096958795AA95E1F78F711C
:100D2000932F96959695969590514F704230E9F095
:100D300040F44423A1F0413059F560E00E94170DC2
:100D400027C04330E1F0443019F520918005289FF9
:100D5000802D11248093990590939A0519C08B30AA
:100D600008F08AE08093920513C020918005289FA7
:100D7000802D1124809395059093960509C02091AC
:100D80008005289F802D11248093970590939805C6
:100D9000E0918E05F0918F053196F0938F05E093E9
:100DA0008E059FCF4F734093900580918005839F60
:100DB000802D1124809391051092A1051092A00519
:100DC00010929F0581E080939305809352031092C7
:100DD000940580918E0590918F05019690938F05D3
:100DE00080938E0580919305882309F4F3C0809148
:100DF0009105811106C060E08CE795E00E94FD033B
:100E0000E9C08150809391058091A105811148C06E
:100E100020919F053091A0052F5F3F4FC901880F9A
:100E2000991FE0919B05F0919C05E80FF91F6591D2
:100E30007491862F87708093A205AB01E3E05695ED
:100E40004795EA95E1F7CA0196958795972F96956C
:100E500096959093A3058F7390918005899F802D1F
:100E600011248093A1054170409351033093A00554
:100E700020939F0580919D0590E02817390780F009
:100E800020919E05222339F0821B91099093A005A1
:100E900080939F0505C060E08CE795E00E94FD030C
:100EA0008091A10581508093A1058091940521E056
:100EB000280F20939405409190053091A305340F9D
:100EC00080918805380F30937E05609197056623E1
:100ED00071F070E0822F022E000C990B0E94301AE4
:100EE00080919805869F300D112430937E05809166
:100EF0007E0590E0849664E270E00E94301A809350
:100F00007E053091920530937F05609195056623AB
:100F100081F0062E000C770B822F022E000C990B0D
:100F20000E94301A80919605869F300D11243093CF
:100F30007F05609199056623A1F0822F220F990BFE
:100F400070E00E94301ACB0162E070E00E94301A1B
:100F500020919A0590917F05289F900D11249093E0
:100F60007F054F3351F080917F058A300CF089E086
:100F700087FD80E080937F0502C010927F05F89482
:100F8000E0917E05F0E0EA5BFD4FE491E0935003D1
:100F900030917F052091A4053203900111244091E6
:100FA000A2054203C001439F900D112400908105CA
:100FB00002C0880F991F0A94E2F797FF02C0815878
:100FC0009F4F880F892F881F990B80934F03809321
:100FD0004E0378948091DD05882309F491C08C300C
:100FE00020F43CE0381B398301C01982FF24F394BC
:100FF000F092AD051092C5051092C6054091AA0564
:101000004D831981141B042F0D5F4DE2410F2EE417
:1010100063E085EA95E00E9495045D8154505D830C
:10102000105D252F41E0612F80E50E947B0C2D8112
:1010300042E0612F83E00E947B0CF092C505F092A4
:10104000C6050091AA0543E0E42EE00E1981101BAD
:101050008DE2810F8D8353E0F52E4D816F2D85EA52
:1010600095E00E943D04F39491E5F912F6CFAD812D
:10107000AE0DAD83EA2EEA9433E0F32E4E2D6F2DA4
:1010800085EA95E00E943D04F394B1E5FB12F6CFAA
:101090000350105D402F612F80E00E94630C402FB1
:1010A000612F83E50E94630C41E0612F83E00E9481
:1010B000E40B42E0612F80E50E94E40B2D81245077
:1010C0002D8344E0622F80E50E94E40B48E06D81AF
:1010D00083E00E94E40B84E08093AE058091AA0532
:1010E0003981381B315D3093AF058091DB059091DC
:1010F000DC050E94750B8091DD0581508093DD0534
:101100008091730590917405892B09F482C041E0A8
:101110004093C5051092C6059091A90585E5891BE8
:101120008093AE051092AF0580917005813009F46F
:1011300053C030F090916F05853008F065C060C0F5
:1011400060E08CE795E00E94FD0310927D0551E080
:101150005093AD05E4ECF0E0E491EF5FE093A90576
:10116000E5ECF0E0E491EF5FE093AA0586EC90E017
:101170009093C4058093C305109274051092730573
:101180001092AB0588EA89830E94B6058823E1F3B3
:1011900086EB90E00E94750B60917105709172056D
:1011A00080E090E04AE00E94960B81EA90E00E9485
:1011B000750B698162956F7070E080E090E04AE0A5
:1011C0000E94960B86E990E00E94750B80916C0559
:1011D000813009F0FEC01DC08091C8059091C905FD
:1011E000A091CA05B091CB058F709927AA27BB277C
:1011F0000897A105B10510F487E009C088E707C08A
:10120000992339F08B5F03C0992319F08FE20E9474
:10121000D90B0E943A0B8091AB0581110EC088EF6B
:1012200091E0E7E5F3E0DF019C011D9221503040A1
:10123000E1F71092AE051092AF050E940A1060937C
:10124000D2057093D3058093D4059093D505209152
:10125000CE053091CF05621B730B7093CD05609363
:10126000CC0580E0D8C02FB7F894809153039091BB
:101270005403A0915503B09156032FBF2091D6057A
:10128000820F911DA11DB11D8093D7059093D805A4
:10129000A093D905B093DA058091C8059091C9054E
:1012A000A091CA05B091CB050196A11DB11D8093F7
:1012B000C8059093C905A093CA05B093CB051092B9
:1012C000D2051092D3051092D4051092D5050E9434
:1012D0000A106093CE057093CF058093D00590934C
:1012E000D10580915805909159052FE0289FA001C4
:1012F000299F500D11245A83498385E10E94F30FE1
:10130000A981BA818A0F9B1F24E0969587952A951B
:10131000E1F79093590580935805209157052223B2
:1013200009F44BC060915B05262F30E040E050E0AF
:1013300029833A834B835C83C0905C05D12CE12CDC
:10134000F12C40915F05509160054A01A12CB12C10
:1013500020915D0530915E052901612C712C821769
:10136000930728F09C014817590708F49A01C9010E
:10137000A0E0B0E09C01AD012419350946095709E8
:1013800069817A818B819C816C197D098E099F0905
:101390000E94141AA5019401241935094609570918
:1013A0000E944B19C20ED31EE41EF51EC0925A05B0
:1013B0006C2D70E085E00E94940F0E94540D809186
:1013C000730590917405892B11F00E94E40D81E062
:1013D00022C0B981B150B983B111D6CE60E070E0BE
:1013E00085E00E94940F83B7817F846083BF83B7B9
:1013F000816083BF83B7816083BF889583B78E7F09
:1014000083BF83B78E7F83BFBFCE893209F035CCCF
:101410000E94AF0D32CC0F900F900F900F900F9055
:10142000DF91CF911F910F91FF90EF90DF90CF90C0
:10143000BF90AF909F908F907F906F905F904F90F4
:1014400008957F928F929F92AF92BF92CF92DF9238
:10145000EF92FF920F931F93CF93DF93FB012491A1
:1014600031964491022E000C330B121613060CF029
:10147000D4C080330CF0D1C0E82F082E000CFF0B35
:10148000DF01A40FB11D47FDBA951A161B060CF01B
:10149000C4C06E5F7F4F8901095F1F4FA3E01595A0
:1014A0000795AA95E1F787FF0BC0480F0E9FC00173
:1014B0000F9F900D1E9F900D1124681B790B80E0EB
:1014C000A42F042E000CBB0BA80FB11D87FDBA95ED
:1014D000D19714F040E3481BF090C5052535310540
:1014E00014F024E530E0A091B105A827982F97705B
:1014F00031E001C0330F9A95EAF78595859585957A
:10150000F4E58F02C0011124895A9C4FB0E0042EEB
:10151000000C550BEE24E394EB2FF0E0E417F507F5
:101520000CF07BC0FB017490F1E0FF1217C06B015F
:10153000EC01E0E8BE2EB72019F0B880B32AB882DB
:10154000E69531F4EFEFCE1ADE0AF6017490E0E88A
:101550002196BC2EB81AB21668F356C0F11019C005
:10156000A32EA0946B01EC01E0E8BE2EB72019F089
:10157000B880BA20B882E69531F4FFEFCF1ADF0ABF
:10158000F6017490E0E82196BC2EB81AB21668F302
:101590003BC0F3E0FF1222C0832E80946B01EC016C
:1015A000F0E8BF2EA12CEB2DE72149F0E8819A2E1F
:1015B0009A2490FE02C0E32B01C0E821E883B69490
:1015C00039F4EFEFCE1ADE0AF6017490E0E8BE2E91
:1015D000A3942196A21638F3AE2516C06B01EC0138
:1015E000E0E8BE2EB72019F0B880B326B882E695A1
:1015F00031F4FFEFCF1ADF0AF6017490E0E821968C
:10160000BC2EB81AB21668F3330F19F48C5A9F4FD8
:1016100031E0BF5F600F711F7FCFDF91CF911F91CE
:101620000F91FF90EF90DF90CF90BF90AF909F9081
:101630008F907F900895CF93C82FF89460E08091A9
:10164000B4050E94290F8091B50518161CF460E0BE
:101650000E94290FCEBD00000DB407FEFDCF8EB550
:101660008091B50518161CF461E00E94290F78944A
:10167000CF9108950F931F93CF938091B1058F5F02
:101680008093B10507E513E0C0E08C2F80640E94D1
:101690001B0B80E80E941B0B61E08091B4050E9447
:1016A000290F8091B50518161CF460E00E94290FDF
:1016B000F80184E591919EBD00000DB407FEFDCFB9
:1016C0009EB58150B9F78091B50518161CF461E0FC
:1016D0000E94290FCF5F0C5A1F4FC630B1F680E42D
:1016E000CF911F910F910C941B0B0F931F93CF93CE
:1016F000DF938C01C0E0D0E0F801EC0FFD1F649196
:10170000662371F0E091A505F091A6050190F081A6
:10171000E02D85EA95E00995892B11F02196ECCF13
:10172000CE01DF91CF911F910F9108958F929F92DB
:10173000AF92BF920F931F93CF93DF93CDB7DEB7D6
:10174000A1970FB6F894DEBF0FBECDBF19A24230ED
:1017500008F44AE08E010F5D1F4F842E912CA12CBE
:10176000B12CA50194010E94B419E62FB901CA0158
:1017700001501109EA3014F4E05D01C0E95CD801C0
:10178000EC93232B242B252B61F7B80185EA95E0F8
:101790000E94A503A1960FB6F894DEBF0FBECDBF81
:1017A000DF91CF911F910F91BF90AF909F908F903D
:1017B0000895E091A505F091A6050190F081E02D36
:1017C000682F85EA95E00994AF92BF92CF92DF929D
:1017D000EF92FF920F931F93CF93DF93182F062F53
:1017E000C1E0D3E08AEFD82E9EEFE92E842F8470DB
:1017F000C82E842F8270B82E842F8870A82E417036
:10180000F42E8C2F880F8F5FE80ECC2081F0402FB4
:101810004D0F612F6C0F85EA95E00E943D04402F2B
:101820004C0F6D2F610F85EA95E00E943D04BB20AF
:1018300081F0402F4D1B612F6C0F85EA95E00E94CF
:101840003D04402F4C1B6D2F610F85EA95E00E94EF
:101850003D04AA2081F0402F4C0F612F6D1B85EABB
:1018600095E00E943D04402F4D0F612F6C1B85EACF
:1018700095E00E943D04F1100AC0CD17CCF4E7FCBE
:1018800004C0D150D394D394ED0CCF5FBACF402F86
:101890004C1B612F6D1B85EA95E00E943D04402F93
:1018A0004D1B612F6C1B85EA95E00E943D04E5CF3E
:1018B000DF91CF911F910F91FF90EF90DF90CF902C
:1018C000BF90AF9008950F931F93CF93DF93D82FBE
:1018D000162F042FC0E0C0174CF4412F4C0F6D2F72
:1018E00085EA95E00E943D04CF5FF5CFDF91CF916F
:1018F0001F910F9108959F92AF92BF92CF92DF9266
:10190000EF92FF920F931F93CF93DF93F82EE62E63
:10191000B22E13E0120FD0E0C3E08AEFC82E0EEF14
:10192000842F8170982EAA24A394A20E4270D42EE4
:10193000DF5F812F8B19080F992081F04C2F440F06
:101940004A0D6E2D6C1B8D2F8F0D0E94630C412F45
:101950006E2D6D1B8C2F8F0D0E94630CD1100AC051
:10196000DC17CCF407FD04C0C150C394C3940C0D24
:101970001E5FDECF4C2F440F4A0D6E2D6C1B8F2D3A
:101980008D1B0E94630C412F6E2D6D1B8F2D8C1BA8
:101990000E94630CE5CFDF91CF911F910F91FF90D3
:1019A000EF90DF90CF90BF90AF909F900895CF932E
:1019B000DF93482F50E0EA01C95ADA4F9DA19923DD
:1019C00099F19EA1911130C09EA5FA01EE0FFF1F63
:1019D000E25AFA4F35A126A1E32FF22FE90FF11DAC
:1019E000E90FF11D259134912F3F9FEF390711F435
:1019F0001DA21AC039AB440F551FFA01EF59FA4F17
:101A00003327220F331F05A0F6A1E02DE20FF31FAD
:101A100065917491811105C040E08CE795E00E94CA
:101A20000E048EA58F5F8EA7DF91CF91089570E091
:101A3000DB01AA0FBB1FA95ABA4FD4962C91D49799
:101A4000D5969C91D597E22FF92FE80FF11DE80F5D
:101A5000F11D259134915F9696963C932E93959720
:101A6000F9018591949190918005989F802D112482
:101A7000695A7A4FFB01EA5BFF4F8083F901A59118
:101A8000B4914B2F50E0E82FF0E04E175F0720F4A1
:101A9000F90125913491832FFB01E95BFF4F989F5A
:101AA000802D112480830895DF92EF92FF920F938F
:101AB0001F93CF93DF93C7E5D5E00EE515E0EE2445
:101AC000EA9462E08A850E94580F2A8530E0F90185
:101AD000ED5FFC4F8491F901E151FD4FF490F90164
:101AE000E552FD4FD490DD2071F081110E94000F6E
:101AF000ED2DF0E0EE0FFF1FEF52FD4FA591B491D9
:101B0000EC91FE2299F489898F5F898B60E08A8548
:101B10000E94580F21960C171D0799F6DF91CF915F
:101B20001F910F91FF90EF90DF900895898988238E
:101B300089F38F3F11F4198AE9CFE98AE7CFCF9370
:101B4000DF930E94750BEC0168E271E085EA95E095
:101B50000E94A5038C0F9D1FDF91CF91089588EF00
:101B600091E0E7E5F3E0DF019C011D922150304058
:101B7000E1F71092AE051092AF0589EA92E00E945B
:101B8000750B0E943A0B8CB583608CBD8DB58E7F32
:101B90008DBD83E391E0EEEFFFE309951092AB0575
:101BA00084E892E00E949F0D0E943A0B0E94540D1F
:101BB00080916C05813039F062E370E080E090E064
:101BC0000E942F10F3CF089580917B058F7169F5E6
:101BD00084E10E94F30FBC01990F880B990B0E94BE
:101BE0003C1826EE3FE34EEC50E40E9477180E942A
:101BF000E5199B017093720560937105672B91F055
:101C000084E080937005E3E7F5E080E04191519135
:101C10002417350718F48093700508958F5F84307A
:101C2000A9F703C08FEF8093700580917B058F5FCC
:101C300080937B050895CF92DF92EF92FF920F93EE
:101C40001F93CF93DF93EC0181E08093AD05109259
:101C5000AC051092AB0510926F058093C50580937B
:101C6000C6051CE00E94B6058823E1F3FE018491BD
:101C7000882319F00091AA0501C000E069E374E02F
:101C800080E00E94210A63E373E08CE0800F0E94F1
:101C9000210A1092AE051093AF05CE010E94750B7C
:101CA0008091A905982F990F890F81958D5A80935E
:101CB000AE058091AA05982F990F890F8195835DB4
:101CC0008093AF058091C80584FF03C085E394E04D
:101CD00002C081E394E00E949F0D8091A905982F96
:101CE000990F890F81958D5A8093AE058091AF052C
:101CF0008F5F8093AF0580918105882319F08DE275
:101D000094E002C089E294E00E949F0D8091A905B1
:101D1000982F990F890F81958D5A8093AE058091E8
:101D2000AF058F5F8093AF0585E294E00E949F0D21
:101D300080916D058130C9F4809181058F5F60913C
:101D4000820587FD09C0082E000C990B70E06F5FBB
:101D50007F4F0E94301A682F6093810540E06AE649
:101D600072E08CE795E00E940E0480916C05813052
:101D7000A9F08091C705482F50E060E070E0C09066
:101D8000C805D090C905E090CA05F090CB05C416EF
:101D9000D506E606F70660F18F3F51F18FEF80938D
:101DA000C70510929305109291051092A00510920C
:101DB0009F051092940510924E0310924F031092BB
:101DC00052031092B40010927D0540E06BE273E084
:101DD0008CE795E00E940E0481E080936F05DF910F
:101DE000CF911F910F91FF90EF90DF90CF900895CA
:101DF00080916E05813009F035CF0E94AF0D32CF52
:101E0000833081F028F4813099F08230A1F0089578
:101E10008730A9F08830B9F08430D1F48091800007
:101E20008F7D03C0809180008F778093800008951C
:101E300084B58F7702C084B58F7D84BD089580916D
:101E4000B0008F7703C08091B0008F7D8093B00089
:101E500008951F93CF93DF93282F30E0F901ED5FB2
:101E6000FC4F8491F901E151FD4FD491F901E55204
:101E7000FD4FC491CC23C1F0162F81110E94000F99
:101E8000EC2FF0E0EE0FFF1FEF5DFC4FA591B4913A
:101E90009FB7F894111104C08C91D095D82302C03B
:101EA000EC91DE2BDC939FBFDF91CF911F910895C2
:101EB000CF93DF9390E0FC01E151FD4F2491FC01B1
:101EC000E552FD4F8491882361F190E0880F991FBE
:101ED000FC01E95EFC4FC591D491FC01EF5DFC4F24
:101EE000A591B491611109C09FB7F894888120959C
:101EF00082238883EC912E230BC0623061F49FB75C
:101F0000F8948881322F309583238883EC912E2B8F
:101F10002C939FBF06C08FB7F894E8812E2B28839F
:101F20008FBFDF91CF9108951F93CF93DF93182F29
:101F3000EB0161E00E94580F209711F460E004C0AB
:101F4000CF3FD10539F461E0812FDF91CF911F910F
:101F50000C94290FE12FF0E0ED5FFC4FE491E330AA
:101F6000F9F048F4E130B9F0E230A1F584B58062CF
:101F700084BDC8BD34C0E730E9F0E83019F1E43081
:101F800049F580918000806280938000D0938B001F
:101F9000C0938A0024C084B5806884BDC7BD1FC0BB
:101FA00080918000806880938000D0938900C093E6
:101FB000880015C08091B00080688093B000C09305
:101FC000B3000DC08091B00080628093B000C093D8
:101FD000B40005C0C038D1050CF0B5CFAFCFDF914C
:101FE000CF911F9108958E3008F08E5087708064D5
:101FF00080937C0080917A00806480937A00809145
:102000007A0086FDFCCF809178002091790090E0E5
:10201000922B08953FB7F8948091DF059091E005E9
:10202000A091E105B091E20526B5A89B05C02F3F20
:1020300019F00196A11DB11D3FBFBA2FA92F982FEE
:102040008827820F911DA11DB11DBC01CD0142E069
:10205000660F771F881F991F4A95D1F708958F92B1
:102060009F92AF92BF92CF92DF92EF92FF926B015D
:102070007C010E940A104B015C01C114D104E104EF
:10208000F104F1F00E940A10DC01CB0188199909D2
:10209000AA09BB09883E9340A105B10570F321E070
:1020A000C21AD108E108F10888EE880E83E0981E74
:1020B000A11CB11CC114D104E104F10419F7DDCF56
:1020C000FF90EF90DF90CF90BF90AF909F908F9058
:1020D00008951F920F920FB60F9211242F933F93E2
:1020E0008F939F93AF93BF93809153039091540329
:1020F000A0915503B09156033091DE0523E0230FE4
:102100002D3720F40196A11DB11D05C026E8230F2F
:102110000296A11DB11D2093DE0580935303909379
:102120005403A0935503B09356038091DF0590911B
:10213000E005A091E105B091E2050196A11DB11D58
:102140008093DF059093E005A093E105B093E2054D
:10215000BF91AF919F918F913F912F910F900FBEA3
:102160000F901F9018951092A8051092A70581E175
:1021700091E09093A6058093A5050895CF93DF93F2
:10218000CDB7DEB765970FB6F894DEBF0FBECDBFF3
:10219000789484B5826084BD84B5816084BD85B542
:1021A000826085BD85B5816085BD80916E0081604E
:1021B00080936E00109281008091810082608093F4
:1021C00081008091810081608093810080918000F6
:1021D0008160809380008091B10084608093B10021
:1021E0008091B00081608093B00080917A0084601B
:1021F00080937A0080917A00826080937A00809147
:102200007A00816080937A0080917A008068809360
:102210007A001092C10082E38093D60581E090E0BD
:10222000A0E0B0E08093D2059093D305A093D405AD
:10223000B093D5058FEF8093C705E0E8F7E72591C8
:1022400034912130304C09F049C0E6E9F7E7E491D8
:10225000E093B005E7E9F7E7E491E0935B05E8E98F
:10226000F7E7E491E0935C05E9E9F7E7859194915C
:1022700090935E0580935D05EBE9F7E78591949176
:102280009093600580935F0587E080938205EEE977
:10229000F7E7E491E0938105EFE9F7E7E491E09354
:1022A000C705E0EAF7E785919491909374058093D0
:1022B0007305E2EAF7E78591949190937605809310
:1022C0007505E4EAF7E785919491909378058093FA
:1022D0007705E6EAF7E7859194912CC09CE390930B
:1022E000B00510925B0580935C0580E293E09093CB
:1022F0005E0580935D0584ED93E090936005809387
:102300005F0587E080938205809381058CEA9DE0DC
:1023100090937405809373058EED9DE09093760500
:102320008093750584E79EE0909378058093770508
:102330008CE39FE090937A058093790511E01093E8
:1023400057056FEF70E085E00E94940F88E080935E
:10235000610589E08093620587E08093630586E0EC
:102360008093640504E00093650582E08093660530
:1023700081E1809367050E94540D8CE39FE0909368
:102380007205809371050093700510937B058BE0B7
:102390008093B3058DE08093B20580E18093B4050E
:1023A0008EE08093B6058FE08093B5051093AD0560
:1023B0001093C5051092C6051093AC05E4ECF0E04F
:1023C000E491EF5FE093A905E5ECF0E0E491EF5FC5
:1023D000E093AA0586EC90E09093C4058093C30532
:1023E0001FB7F89480913F01811127C0E5EEF2E01C
:1023F0008491E9EFF2E09491E82FF0E0EE0FFF1FF7
:10240000E95EFC4FA591B491EC91E92321F461E0E0
:102410008AE00E94290F61E08AE00E94580F8CB583
:1024200080618CBD8CB580648CBD61E08DE00E94C4
:10243000580F61E08BE00E94580F80913F018F5F41
:1024400080933F011FBF8CB58F7D8CBD8CB58C7F79
:1024500081608CBD8DB581608DBD8CB58C608CBD6F
:1024600061E08091B3050E94580F61E08091B20550
:102470000E94580F61E08091B4050E94580F80912E
:10248000B60518161CF461E00E94580F8091B5053E
:1024900018161CF461E00E94580F8091B6051816BA
:1024A00074F460E00E94290F6AE070E080E090E040
:1024B0000E942F1061E08091B6050E94290F809143
:1024C000B205082E000C990BFC01E552FD4FE4917A
:1024D000F0E0EE0FFF1FEF5DFC4F2591349130933C
:1024E000BA052093B905FC01E151FD4FE491E09359
:1024F000C0058091B305082E000C990BFC01E55234
:10250000FD4FE491F0E0EE0FFF1FEF5DFC4F2591D2
:1025100034913093B8052093B705FC01E151FD4F8C
:10252000E491E093BF058091B505082E000C990B4E
:10253000FC01E552FD4FE491F0E0EE0FFF1FEF5D6F
:10254000FC4F259134913093BC052093BB05FC01D1
:10255000E151FD4FE491E093C1058091B405082E4F
:10256000000C990BFC01E552FD4FE491F0E0EE0FF9
:10257000FF1FEF5DFC4F259134913093BE052093F2
:10258000BD05FC01E151FD4FE491E093C20581E2FC
:102590000E941B0B84E10E941B0B8091B00587FFFA
:1025A00003C08FE78093B0058091B00580680E94DA
:1025B0001B0B80E20E941B0B8CE00E941B0B0E94F5
:1025C0003A0B81E08093800584E08093A40580E746
:1025D00090E090938C0580938B0560E080E00E94F2
:1025E000170D61E070E083E00E94940F8091B100CC
:1025F000887F81608093B100F894109280001092DF
:102600008100109285001092840088E191E09093FF
:102610008900809388008091810088608093810088
:102620008091810081608093810080916F00826041
:1026300080936F0078948091730590917405892B35
:1026400011F00E94E40D80916D05813019F4109213
:1026500081050BC0809170058823C9F340E064E7D1
:1026600070E08CE795E00E940E048091C7058823F6
:1026700021F082E890E00E941B0EC0907105D0907E
:102680007205C094D094E12CF12C0E940A104B01E9
:102690005C010E940A10A501940120953095409597
:1026A000509560957095809590950E94141A9B01A5
:1026B000AC01C701B6010E94141A6B017C01609144
:1026C0005805709159054B01A12CB12C0E940A109C
:1026D000DC01CB01880D991DAA1DBB1DBC01CD01DC
:1026E0006C0D7D1D8E1D9F1D611571058105910568
:1026F00011F00E94FC170E94AE02DE0111967D01CE
:1027000068E1462E512C612C712C22242394312C0B
:102710000E94B605882309F49FC280916E0581301E
:1027200079F440E068E870E08CE795E00E940E04E0
:102730008091C705882321F080E990E00E941B0E5C
:1027400080914C0390914D03009721F0019709F47B
:1027500060C06DC080916B0590916905913091F4D6
:1027600020914A0330914B0321303105E1F0109262
:10277000490310924803EFEFFFEFF0934B03E09310
:102780004A0338C0813089F480914A0390914B0309
:10279000019659F0109249031092480330924B036E
:1027A00020924A0327C08130A9F380916805909157
:1027B0006A05913069F420914803309149032F3F15
:1027C0003F4F09F45BC230924903209248030EC088
:1027D000813081F48091480390914903019751F031
:1027E000AFEFBFEFB0934903A093480310924B03A0
:1027F00010924A0380916C0581508E3F18F481E05D
:1028000090E002C083E090E0909302018093010188
:102810000EC080916C05813009F026C240E06BE269
:1028200073E08CE795E00E940E040E94AE022091B6
:10283000010130910201032E000C440B550B6091F5
:10284000C8057091C9058091CA059091CB050E9479
:10285000B419672B682B692B09F0D8C080914C0301
:1028600090914D03892B09F0D1C00091460310913E
:1028700047035801B1E0AB1AB108000F111F0E5BFE
:102880001E4FB7FCC3C0A114B10409F0A1C0F801E8
:10289000238180914A03280F928180914803890FF8
:1028A000082E000C990B8A966AE270E00E94301A9A
:1028B000FC01882ED80112968C93822F220F990B3F
:1028C000489668E170E00E94301A982ED80113965D
:1028D0008C93C0904603D0904703A6E4B1E021E07A
:1028E00030E02C153D0544F512964C911297841258
:1028F0001FC013964C91139794121AC030924D0337
:1029000020924C031091410180914001811708F001
:1029100052C11093400180E090E00E9435191817D1
:1029200009F474C0612F80E090E00E943D196EC0F0
:102930002F5F3F4F1296D5CF209144013091450132
:10294000E217F30709F05CC0209142013091430186
:102950008217930709F054C040E06AE672E08CE702
:1029600095E00E940E04BDEFCB16D104ACF4F60145
:10297000EE0FFF1FEA5BFE4F80E090E080829182C5
:102980000196329683309105C9F7E3E0CE0ED11C53
:10299000D0924703C09246030E94AE172AE230E06D
:1029A00040E050E00E944B19709345016093440150
:1029B0000E94AE17A30192010E944B19709343012C
:1029C00060934201809141018F5F8093410118C063
:1029D000D80111962C9111978C91082E000C990B0F
:1029E0008A966AE270E00E94301AF8018283822F90
:1029F000220F990B489668E170E00E94301A838399
:102A0000F1E0AF1AB108025011093BCF80914C039D
:102A100090914D03009721F0019709F4CCC01CC19F
:102A200006E411E0C12CD12C80914603909147031C
:102A3000C816D906ACF5D8018C9111966C91C114C9
:102A4000D10439F4660F770B880F990B0E94930518
:102A500021C09091C805B62EBB0CA82EAA0C90FFE1
:102A60000BC04B2D6A2D85EA95E00E943D0441E0A4
:102A70004B0D61E06A0D0AC061E06A0D4B2D85EADD
:102A800095E00E943D0441E04B0D6A2D85EA95E0FA
:102A90000E943D04BFEFCB1ADB0A0E5F1F4FC4CF6D
:102AA00011E01093C5051093C60560914201709125
:102AB0004301660F771F8091440190914501880F73
:102AC000991F0E9493051093AD05B0904001198A9B
:102AD000188A1B8A1A8A1D8A1C8A43E050E069E121
:102AE00071E0CE0140960E948403809141011B86D3
:102AF0001A861D861C861F861E864AE0B70190E056
:102B00000E941018F70101900020E9F73197AF01FA
:102B10004E195F09B701CE010A960E9484031A82FA
:102B200019821C821B821E821D826A857B8561152B
:102B3000710529F04E855F85C7010E9484038C8949
:102B40009D89C888D988C114D10409F493C000971D
:102B5000B1F00D811E81080F191FB801C7010E9435
:102B60001403882309F486C029813A818D819E81CE
:102B7000B601820F931F0E94321B1E830D836B2DA3
:102B8000C7010E943B03811103C0C7010E940003DB
:102B90004D815E8169817A8185EA95E00E9480029B
:102BA00089819A810E94DA168A859B850E94DA16AD
:102BB000888999894FC083E08093AD056DE171E00C
:102BC00085EA95E00E94A50368E271E085EA95E058
:102BD0000E94A50382E08093AD05109141011B8600
:102BE0001A861D861C861F861E8647E050E06BE213
:102BF00071E0CE010A960E9484031A8219821C8217
:102C00001B821E821D826A857B856115710529F0F4
:102C10004E855F85C7010E948403612FC7010E9412
:102C20003B03811103C0C7010E9400034D815E81F7
:102C300069817A8185EA95E00E94800268E271E00C
:102C400085EA95E00E94A50389819A810E94DA169F
:102C50008A859B850E94DA1680E090E0892B09F432
:102C600057CD0E94000051CD80916D05813009F053
:102C7000DECDD4CDC7010E94000381CF813009F49D
:102C8000AFCDB8CD0F931F93CF93DF9382309105D3
:102C900010F482E090E0E091E505F091E60520E097
:102CA00030E0A0E0B0E0309719F14081518102811D
:102CB000138148175907C8F08417950769F41097CE
:102CC00031F012960C93129713961C9327C0009321
:102CD000E5051093E60522C02115310519F04217CC
:102CE000530718F49A01BD01EF01DF01F801DBCFB2
:102CF00021153105F9F0281B390B2430310580F4FA
:102D00008A819B816115710521F0FB019383828388
:102D100004C09093E6058093E505FE01329644C019
:102D2000FE01E20FF31F8193919322503109398301
:102D300028833AC02091E3053091E405232B41F428
:102D400020910501309106013093E4052093E305BD
:102D500020910301309104012115310541F42DB773
:102D60003EB74091070150910801241B350BE091BB
:102D7000E305F091E405E217F307A0F42E1B3F0BE7
:102D80002817390778F0AC014E5F5F4F24173507DD
:102D900048F04E0F5F1F5093E4054093E305819385
:102DA000919302C0E0E0F0E0CF01DF91CF911F915D
:102DB0000F910895CF93DF93009709F481C0FC0130
:102DC000329713821282A091E505B091E605109723
:102DD00081F420813181820F931F2091E30530918E
:102DE000E4052817390751F5F093E405E093E3056E
:102DF00067C0ED0120E030E0CE17DF0740F44A81E4
:102E00005B819E0141155105F1F0EA01F5CFD383B5
:102E1000C28340815181840F951FC817D90759F487
:102E200088819981840F951F0296918380838A817E
:102E30009B81938382832115310529F4F093E60564
:102E4000E093E5053DC0E901FB83EA83499159918F
:102E5000C40FD51FEC17FD0761F480819181840FA9
:102E6000951F0296E90199838883828193819B83D0
:102E70008A83E0E0F0E012968D919C911397009781
:102E800019F0FD01DC01F7CF8D919C9111979D0107
:102E90002E5F3F4F820F931F2091E3053091E40591
:102EA0002817390769F4309729F41092E605109233
:102EB000E50502C013821282B093E405A093E305F6
:102EC000DF91CF9108958F929F92AF92BF92CF9250
:102ED000DF92EF92FF92CF93DF93EC0168817981CB
:102EE0008A819B81611571058105910521F464E258
:102EF00079ED8BE597E02DE133EF41E050E00E9462
:102F00004B1949015A019B01AC01A7EAB1E40E94A7
:102F10006A196B017C01ACEEB4EFA50194010E942B
:102F20007819DC01CB018C0D9D1DAE1DBF1DB7FFB7
:102F300003C00197A109B04888839983AA83BB8302
:102F4000BC01CD019F77DF91CF91FF90EF90DF9093
:102F5000CF90BF90AF909F908F9008958F929F9247
:102F6000AF92BF92CF92DF92EF92FF9260910901F0
:102F700070910A0180910B0190910C01611571050E
:102F80008105910521F464E279ED8BE597E02DE16F
:102F900033EF41E050E00E944B1949015A019B0177
:102FA000AC01A7EAB1E40E946A196B017C01ACEEA6
:102FB000B4EFA50194010E947819DC01CB018C0DBE
:102FC0009D1DAE1DBF1DB7FF03C00197A109B048ED
:102FD0008093090190930A01A0930B01B0930C0117
:102FE000BC01CD019F77FF90EF90DF90CF90BF9015
:102FF000AF909F908F9008956093090170930A019C
:1030000080930B0190930C010895BB274A3031F453
:10301000992322F4BDE2909581959F4F0C9411184D
:10302000BB27FB015527AA27880F991FAA1FA417A2
:1030300010F0A41B83955051B9F7A05DAA3308F096
:10304000A95DA193009779F7B111B1931192CB01CA
:103050000C942A18DC01FC01672F71917723E1F7AA
:10306000329704C07C916D9370836291AE17BF0755
:10307000C8F30895E89409C097FB3EF490958095B5
:10308000709561957F4F8F4F9F4F9923A9F0F92F2E
:1030900096E9BB279395F695879577956795B795AC
:1030A000F111F8CFFAF4BB0F11F460FF1BC06F5F92
:1030B0007F4F8F4F9F4F16C0882311F096E911C0A4
:1030C000772321F09EE8872F762F05C0662371F0C5
:1030D00096E8862F70E060E02AF09A95660F771FD9
:1030E000881FDAF7880F9695879597F908950E94BB
:1030F0008A180C94FB180E94ED1838F00E94F418FE
:1031000020F0952311F00C94E4180C94EA18112483
:103110000C942F190E940C1970F3959FC1F3950F11
:1031200050E0551F629FF001729FBB27F00DB11D4B
:10313000639FAA27F00DB11DAA1F649F6627B00DDB
:10314000A11D661F829F2227B00DA11D621F739FC4
:10315000B00DA11D621F839FA00D611D221F749FD2
:103160003327A00D611D231F849F600D211D822F19
:10317000762F6A2F11249F5750409AF0F1F0882340
:103180004AF0EE0FFF1FBB1F661F771F881F91506D
:103190005040A9F79E3F510580F00C94E4180C9420
:1031A0002F195F3FE4F3983ED4F3869577956795A2
:1031B000B795F795E7959F5FC1F7FE2B880F911D97
:1031C0009695879597F9089597F99F6780E870E03D
:1031D00060E008959FEF80EC089500240A9416168D
:1031E000170618060906089500240A9412161306F5
:1031F000140605060895092E0394000C11F4882383
:1032000052F0BB0F40F4BF2B11F460FF04C06F5F9E
:103210007F4F8F4F9F4F089557FD9058440F551F74
:1032200059F05F3F71F04795880F97FB991F61F048
:103230009F3F79F087950895121613061406551FBF
:10324000F2CF4695F1DF08C0161617061806991F2B
:10325000F1CF86957105610508940895E894BB2720
:1032600066277727CB0197F90895F999FECF92BD8C
:1032700081BDF89A992780B50895262FF999FECF38
:103280001FBA92BD81BD20BD0FB6F894FA9AF99A83
:103290000FBE01960895052E97FB1EF400940E9420
:1032A000621957FD07D00E94B41907FC03D04EF4F1
:1032B0000C94621950954095309521953F4F4F4F92
:1032C0005F4F089590958095709561957F4F8F4FD2
:1032D0009F4F08950E94D619A59F900DB49F900D01
:1032E000A49F800D911D11240895B7FF0C946A19B5
:1032F0000E946A19821B930B08952F923F924F925E
:103300005F926F927F928F929F92AF92BF92CF9275
:10331000DF92EF92FF920F931F93CF93DF93CDB77E
:10332000DEB7CA1BDB0B0FB6F894DEBF0FBECDBFF6
:1033300009942A88398848885F846E847D848C84C7
:103340009B84AA84B984C884DF80EE80FD800C81D0
:103350001B81AA81B981CE0FD11D0FB6F894DEBFB3
:103360000FBECDBFED010895A1E21A2EAA1BBB1B13
:10337000FD010DC0AA1FBB1FEE1FFF1FA217B30741
:10338000E407F50720F0A21BB30BE40BF50B661F57
:10339000771F881F991F1A9469F76095709580951B
:1033A00090959B01AC01BD01CF010895A29FB00192
:1033B000B39FC001A39F700D811D1124911DB29F69
:1033C000700D811D1124911D08950E94141988F01B
:1033D0009F5798F0B92F9927B751B0F0E1F0660FD9
:1033E000771F881F991F1AF0BA95C9F714C0B1301A
:1033F00091F00E942E19B1E008950C942E19672FB8
:10340000782F8827B85F39F0B93FCCF38695779548
:103410006795B395D9F73EF4909580957095619531
:103420007F4F8F4F9F4F0895DB018F939F930E9493
:103430006A19BF91AF91A29F800D911DA39F900D1E
:10344000B29F900D11240895991B79E004C0991F33
:10345000961708F0961B881F7A95C9F780950895EE
:1034600097FB072E16F4009407D077FD09D00E9431
:10347000441A07FC05D03EF4909581959F4F08951E
:10348000709561957F4F0895AA1BBB1B51E107C042
:10349000AA1FBB1FA617B70710F0A61BB70B881FE4
:1034A000991F5A95A9F780959095BC01CD01089573
:1034B000EE0FFF1F0590F491E02D0994A0E0B0E01D
:1034C000E4E6FAE10C948119EC01009721F4CB01B8
:1034D0000E944216B4C0FC01E60FF71F9C01225067
:1034E0003109E217F30708F4A8C0D9010D911C9126
:1034F000119706171707B0F00530110508F49BC0A7
:10350000C80104978617970708F495C0025011095F
:10351000061B170B019311936D937C93CF010E94AF
:10352000DA1689C05B01A01AB10A4C01800E911E07
:10353000A091E505B091E605612C712CE12CF12CF0
:10354000109709F446C08D919C911197A815B90563
:10355000B1F56C0142E0C40ED11CCA14DB0478F151
:103560004C018A189B08640142E0C40ED11C1296DB
:10357000BC9012971396AC91B5E0CB16D10440F0F5
:10358000B282A38391828082D9016D937C9309C01A
:103590000E5F1F4F800F911FF90191838083EB2DE8
:1035A000FA2FE114F10431F0D7011396FC93EE9356
:1035B000129741C0F093E605E093E5053CC068161C
:1035C000790608F43C017D0112960D90BC91A02D66
:1035D000B7CF8091E3059091E40588169906E1F450
:1035E00066167706C8F48091030190910401009754
:1035F00041F48DB79EB74091070150910801841B9B
:10360000950BE817F907C8F4F093E405E093E30598
:10361000F901718360830FC0CB010E9442167C01C7
:10362000009759F0A801BE010E94291BCE010E94FB
:10363000DA16C70104C0CE0102C080E090E0CDB729
:10364000DEB7EEE00C949D1981E090E0F8940C94C4
:10365000391BFB01DC0102C001900D92415050402A
:10366000D8F70895FB01DC0101900D920020E1F7ED
:063670000895F894FFCF5D
:103676000103000000E705800001000000000000D3
:1036860000C5048002AB02AA02207C200047616DBF
:10369600650A4F76657221000D0A0073636F7265C5
:0A36A6003A20004C4F414445520009
:00000001FF
